{
  "contractName": "MetaCoin",
  "abi": [
    {
      "constant": false,
      "inputs": [],
      "name": "drawLottery",
      "outputs": [],
      "payable": false,
      "stateMutability": "nonpayable",
      "type": "function"
    },
    {
      "constant": true,
      "inputs": [],
      "name": "jackpot",
      "outputs": [
        {
          "name": "",
          "type": "uint256"
        }
      ],
      "payable": false,
      "stateMutability": "view",
      "type": "function"
    },
    {
      "constant": false,
      "inputs": [
        {
          "name": "addr",
          "type": "address"
        }
      ],
      "name": "getBalanceInEth",
      "outputs": [
        {
          "name": "",
          "type": "uint256"
        }
      ],
      "payable": false,
      "stateMutability": "nonpayable",
      "type": "function"
    },
    {
      "constant": true,
      "inputs": [
        {
          "name": "",
          "type": "uint256"
        }
      ],
      "name": "lotterys",
      "outputs": [
        {
          "name": "user_address",
          "type": "address"
        },
        {
          "name": "ticket_val",
          "type": "uint256"
        }
      ],
      "payable": false,
      "stateMutability": "view",
      "type": "function"
    },
    {
      "constant": false,
      "inputs": [
        {
          "name": "receiver",
          "type": "address"
        },
        {
          "name": "amount",
          "type": "uint256"
        }
      ],
      "name": "sendCoin",
      "outputs": [
        {
          "name": "sufficient",
          "type": "bool"
        }
      ],
      "payable": false,
      "stateMutability": "nonpayable",
      "type": "function"
    },
    {
      "constant": false,
      "inputs": [],
      "name": "getJackpot",
      "outputs": [
        {
          "name": "",
          "type": "uint256"
        }
      ],
      "payable": false,
      "stateMutability": "nonpayable",
      "type": "function"
    },
    {
      "constant": false,
      "inputs": [
        {
          "name": "addr",
          "type": "address"
        }
      ],
      "name": "getBalance",
      "outputs": [
        {
          "name": "",
          "type": "uint256"
        }
      ],
      "payable": false,
      "stateMutability": "nonpayable",
      "type": "function"
    },
    {
      "constant": false,
      "inputs": [
        {
          "name": "amount",
          "type": "uint256"
        }
      ],
      "name": "buyLottery",
      "outputs": [
        {
          "name": "sufficient",
          "type": "bool"
        }
      ],
      "payable": false,
      "stateMutability": "nonpayable",
      "type": "function"
    },
    {
      "inputs": [],
      "payable": false,
      "stateMutability": "nonpayable",
      "type": "constructor"
    },
    {
      "anonymous": false,
      "inputs": [
        {
          "indexed": true,
          "name": "_from",
          "type": "address"
        },
        {
          "indexed": true,
          "name": "_to",
          "type": "address"
        },
        {
          "indexed": false,
          "name": "_value",
          "type": "uint256"
        }
      ],
      "name": "Transfer",
      "type": "event"
    },
    {
      "anonymous": false,
      "inputs": [
        {
          "indexed": true,
          "name": "_from",
          "type": "address"
        },
        {
          "indexed": false,
          "name": "_value",
          "type": "uint256"
        }
      ],
      "name": "BuyLotteryEvent",
      "type": "event"
    }
  ],
  "bytecode": "0x6060604052341561000f57600080fd5b6127106000803273ffffffffffffffffffffffffffffffffffffffff1673ffffffffffffffffffffffffffffffffffffffff16815260200190815260200160002081905550600060018190555061096f8061006b6000396000f30060606040526004361061008e576000357c0100000000000000000000000000000000000000000000000000000000900463ffffffff16806327e605ec146100935780636b31ee01146100a85780637bd703e8146100d15780637e3d88031461011e57806390b98a11146101885780639329066c146101e2578063f8b2cb4f1461020b578063ff2156c514610258575b600080fd5b341561009e57600080fd5b6100a6610293565b005b34156100b357600080fd5b6100bb61039c565b6040518082815260200191505060405180910390f35b34156100dc57600080fd5b610108600480803573ffffffffffffffffffffffffffffffffffffffff169060200190919050506103a2565b6040518082815260200191505060405180910390f35b341561012957600080fd5b61013f600480803590602001909190505061044a565b604051808373ffffffffffffffffffffffffffffffffffffffff1673ffffffffffffffffffffffffffffffffffffffff1681526020018281526020019250505060405180910390f35b341561019357600080fd5b6101c8600480803573ffffffffffffffffffffffffffffffffffffffff1690602001909190803590602001909190505061049d565b604051808215151515815260200191505060405180910390f35b34156101ed57600080fd5b6101f56105f6565b6040518082815260200191505060405180910390f35b341561021657600080fd5b610242600480803573ffffffffffffffffffffffffffffffffffffffff16906020019091905050610600565b6040518082815260200191505060405180910390f35b341561026357600080fd5b6102796004808035906020019091905050610648565b604051808215151515815260200191505060405180910390f35b600080600060646001430340600190048115156102ac57fe5b06925060009150600090505b600280549050811015610397576002818154811015156102d457fe5b90600052602060002090600202016001015482019150828210151561038a5760015460008060028481548110151561030857fe5b906000526020600020906002020160000160009054906101000a900473ffffffffffffffffffffffffffffffffffffffff1673ffffffffffffffffffffffffffffffffffffffff1673ffffffffffffffffffffffffffffffffffffffff1681526020019081526020016000206000828254019250508190555060006001819055505b80806001019150506102b8565b505050565b60015481565b600073__ConvertLib____________________________6396e4ee3d6103c784610600565b60636000604051602001526040518363ffffffff167c0100000000000000000000000000000000000000000000000000000000028152600401808381526020018281526020019250505060206040518083038186803b151561042857600080fd5b6102c65a03f4151561043957600080fd5b505050604051805190509050919050565b60028181548110151561045957fe5b90600052602060002090600202016000915090508060000160009054906101000a900473ffffffffffffffffffffffffffffffffffffffff16908060010154905082565b6000816000803373ffffffffffffffffffffffffffffffffffffffff1673ffffffffffffffffffffffffffffffffffffffff1681526020019081526020016000205410156104ee57600090506105f0565b816000803373ffffffffffffffffffffffffffffffffffffffff1673ffffffffffffffffffffffffffffffffffffffff16815260200190815260200160002060008282540392505081905550816000808573ffffffffffffffffffffffffffffffffffffffff1673ffffffffffffffffffffffffffffffffffffffff168152602001908152602001600020600082825401925050819055508273ffffffffffffffffffffffffffffffffffffffff163373ffffffffffffffffffffffffffffffffffffffff167fddf252ad1be2c89b69c2b068fc378daa952ba7f163c4a11628f55a4df523b3ef846040518082815260200191505060405180910390a3600190505b92915050565b6000600154905090565b60008060008373ffffffffffffffffffffffffffffffffffffffff1673ffffffffffffffffffffffffffffffffffffffff168152602001908152602001600020549050919050565b6000816000803373ffffffffffffffffffffffffffffffffffffffff1673ffffffffffffffffffffffffffffffffffffffff16815260200190815260200160002054101561069957600090506108be565b600280548060010182816106ad91906108c3565b9160005260206000209060020201600060408051908101604052803373ffffffffffffffffffffffffffffffffffffffff16815260200186815250909190915060008201518160000160006101000a81548173ffffffffffffffffffffffffffffffffffffffff021916908373ffffffffffffffffffffffffffffffffffffffff160217905550602082015181600101555050506064826001540110151561080e576001546064039150816000803373ffffffffffffffffffffffffffffffffffffffff1673ffffffffffffffffffffffffffffffffffffffff16815260200190815260200160002060008282540392505081905550816001600082825401925050819055503373ffffffffffffffffffffffffffffffffffffffff167f919af78233bbb07e10368fc05e051358e9045a377a4ed6ecfbcc23923593fc72836040518082815260200191505060405180910390a2610809610293565b6108b9565b816000803373ffffffffffffffffffffffffffffffffffffffff1673ffffffffffffffffffffffffffffffffffffffff16815260200190815260200160002060008282540392505081905550816001600082825401925050819055503373ffffffffffffffffffffffffffffffffffffffff167f919af78233bbb07e10368fc05e051358e9045a377a4ed6ecfbcc23923593fc72836040518082815260200191505060405180910390a25b600190505b919050565b8154818355818115116108f0576002028160020283600052602060002091820191016108ef91906108f5565b5b505050565b61094091905b8082111561093c57600080820160006101000a81549073ffffffffffffffffffffffffffffffffffffffff02191690556001820160009055506002016108fb565b5090565b905600a165627a7a72305820e9737b1dfbcf283768217958cce73e4827790e2b8e82df948745f72c475b3dfa0029",
  "source": "pragma solidity ^0.4.2;\r\n\r\nimport \"./ConvertLib.sol\";\r\n\r\n// This is just a simple example of a coin-like contract.\r\n// It is not standards compatible and cannot be expected to talk to other\r\n// coin/token contracts.\r\n\r\ncontract MetaCoin {\r\n\tmapping (address => uint) balances;\r\n\tuint public jackpot;\r\n\r\n\tstruct Lottery {\r\n\t    address user_address;\r\n\t    uint ticket_val;\r\n        }\r\n\r\n    Lottery[] public lotterys;\r\n\r\n\r\n\tevent Transfer(address indexed _from, address indexed _to, uint _value);\r\n\tevent BuyLotteryEvent(address indexed _from, uint _value);\r\n\r\n\tfunction MetaCoin() {\r\n\t\tbalances[tx.origin] = 10000;\r\n\t\tjackpot = 0;\r\n\t}\r\n\r\n\tfunction sendCoin(address receiver, uint amount) returns(bool sufficient) {\r\n\t\tif (balances[msg.sender] < amount) return false;\r\n\t\tbalances[msg.sender] -= amount;\r\n\t\tbalances[receiver] += amount;\r\n\t\tTransfer(msg.sender, receiver, amount);\r\n\t\treturn true;\r\n\t}\r\n\r\n\tfunction getBalanceInEth(address addr) returns(uint){\r\n\t\treturn ConvertLib.convert(getBalance(addr),99);\r\n\t}\r\n\r\n\tfunction getBalance(address addr) returns(uint) {\r\n\t\treturn balances[addr];\r\n\t}\r\n\r\n\tfunction buyLottery(uint amount) returns(bool sufficient) {\r\n\t\tif (balances[msg.sender] < amount) return false;\r\n        lotterys.push(Lottery({\r\n            user_address: msg.sender,\r\n            ticket_val: amount\r\n        }));\r\n        if (jackpot + amount >= 100) {\r\n            amount = 100 - jackpot;\r\n            balances[msg.sender] -= amount;\r\n            jackpot += amount;\r\n            BuyLotteryEvent(msg.sender, amount);\r\n            drawLottery();\r\n        } else {\r\n            balances[msg.sender] -= amount;\r\n            jackpot += amount;\r\n            BuyLotteryEvent(msg.sender, amount);\r\n        }\r\n\t\treturn true;\r\n\t}\r\n\r\n\tfunction drawLottery() {\r\n\t    uint random_number = uint(block.blockhash(block.number-1))%100;\r\n\t    uint count = 0;\r\n        for (uint i = 0; i < lotterys.length; i++) {\r\n            count += lotterys[i].ticket_val;\r\n            if (count >= random_number){\r\n                balances[lotterys[i].user_address] += jackpot;\r\n\t            jackpot = 0;\r\n            }\r\n        }\r\n\t}\r\n\r\n\tfunction getJackpot() returns(uint) {\r\n\t\treturn jackpot;\r\n\t}\r\n}\r\n",
  "sourcePath": "C:\\Users\\sxzho\\WebstormProjects\\node\\SmartContract\\contracts\\MetaCoin.sol",
  "compiler": {
    "name": "solc",
    "version": "0.4.18+commit.9cf6e910.Emscripten.clang"
  },
  "schemaVersion": "1.0.1",
  "updatedAt": "2017-11-28T03:22:13.510Z"
}