{
  "contractName": "MetaCoin",
  "abi": [
    {
      "constant": false,
      "inputs": [
        {
          "name": "addr",
          "type": "address"
        }
      ],
      "name": "drawLottery",
      "outputs": [
        {
          "name": "",
          "type": "uint256"
        }
      ],
      "payable": false,
      "stateMutability": "nonpayable",
      "type": "function"
    },
    {
      "constant": true,
      "inputs": [
        {
          "name": "receiver",
          "type": "address"
        },
        {
          "name": "amount",
          "type": "uint256"
        }
      ],
      "name": "jackpot",
      "outputs": [
        {
          "name": "",
          "type": "uint256"
        }
      ],
      "payable": false,
      "stateMutability": "view",
      "type": "function"
    },
    {
      "constant": false,
      "inputs": [
        {
          "name": "addr",
          "type": "address"
        }
      ],
      "name": "getBalanceInEth",
      "outputs": [
        {
          "name": "",
          "type": "uint256"
        }
      ],
      "payable": false,
      "stateMutability": "nonpayable",
      "type": "function"
    },
    {
      "inputs": [
        {
          "name": "",
          "type": "uint256"
        }
      ],
      "payable": false,
      "stateMutability": "view",
      "type": "function",
      "constant": true,
      "name": "lotterys",
      "outputs": [
        {
          "name": "user_address",
          "type": "address"
        },
        {
          "name": "ticket_val",
          "type": "uint256"
        }
      ]
    },
    {
      "anonymous": false,
      "inputs": [
        {
          "indexed": true,
          "name": "receiver",
          "type": "address"
        },
        {
          "indexed": true,
          "name": "amount",
          "type": "uint256"
        },
        {
          "indexed": false,
          "name": "_value",
          "type": "uint256"
        }
      ],
      "name": "sendCoin",
      "type": "function",
      "constant": false,
      "outputs": [
        {
          "name": "sufficient",
          "type": "bool"
        }
      ],
      "payable": false,
      "stateMutability": "nonpayable"
    },
    {
      "constant": false,
      "inputs": [
        {
          "name": "addr",
          "type": "address"
        }
      ],
      "name": "getBalance",
      "outputs": [
        {
          "name": "",
          "type": "uint256"
        }
      ],
      "payable": false,
      "stateMutability": "nonpayable",
      "type": "function"
    },
    {
      "constant": false,
      "inputs": [
        {
          "name": "amount",
          "type": "uint256"
        }
      ],
      "name": "buyLottery",
      "outputs": [
        {
          "name": "sufficient",
          "type": "bool"
        }
      ],
      "payable": false,
      "stateMutability": "nonpayable",
      "type": "function"
    },
    {
      "inputs": [],
      "payable": false,
      "stateMutability": "nonpayable",
      "type": "constructor"
    },
    {
      "anonymous": false,
      "inputs": [
        {
          "indexed": true,
          "name": "_from",
          "type": "address"
        },
        {
          "indexed": true,
          "name": "_to",
          "type": "address"
        },
        {
          "indexed": false,
          "name": "_value",
          "type": "uint256"
        }
      ],
      "name": "Transfer",
      "type": "event"
    },
    {
      "anonymous": false,
      "inputs": [
        {
          "indexed": true,
          "name": "_from",
          "type": "address"
        },
        {
          "indexed": false,
          "name": "_value",
          "type": "uint256"
        }
      ],
      "name": "BuyLotteryEvent",
      "type": "event"
    }
  ],
  "bytecode": "0x6060604052341561000f57600080fd5b6127106000803273ffffffffffffffffffffffffffffffffffffffff1673ffffffffffffffffffffffffffffffffffffffff168152602001908152602001600020819055506000600181905550610a108061006b6000396000f300606060405260043610610083576000357c0100000000000000000000000000000000000000000000000000000000900463ffffffff16806327e605ec146100885780636b31ee011461009d5780637bd703e8146100c65780637e3d88031461011357806390b98a111461017d578063f8b2cb4f146101d7578063ff2156c514610224575b600080fd5b341561009357600080fd5b61009b61025f565b005b34156100a857600080fd5b6100b061037c565b6040518082815260200191505060405180910390f35b34156100d157600080fd5b6100fd600480803573ffffffffffffffffffffffffffffffffffffffff16906020019091905050610382565b6040518082815260200191505060405180910390f35b341561011e57600080fd5b610134600480803590602001909190505061042a565b604051808373ffffffffffffffffffffffffffffffffffffffff1673ffffffffffffffffffffffffffffffffffffffff1681526020018281526020019250505060405180910390f35b341561018857600080fd5b6101bd600480803573ffffffffffffffffffffffffffffffffffffffff1690602001909190803590602001909190505061047d565b604051808215151515815260200191505060405180910390f35b34156101e257600080fd5b61020e600480803573ffffffffffffffffffffffffffffffffffffffff169060200190919050506105d6565b6040518082815260200191505060405180910390f35b341561022f57600080fd5b610245600480803590602001909190505061061e565b604051808215151515815260200191505060405180910390f35b600080600080606460014303406001900481151561027957fe5b06935060009250600091505b600280549050821015610364576002828154811015156102a157fe5b906000526020600020906002020160010154830192508383101515610357576001546000806002858154811015156102d557fe5b906000526020600020906002020160000160009054906101000a900473ffffffffffffffffffffffffffffffffffffffff1673ffffffffffffffffffffffffffffffffffffffff1673ffffffffffffffffffffffffffffffffffffffff1681526020019081526020016000206000828254019250508190555060006001819055505b8180600101925050610285565b80600290805461037592919061089b565b5050505050565b60015481565b600073__ConvertLib____________________________6396e4ee3d6103a7846105d6565b60016000604051602001526040518363ffffffff167c0100000000000000000000000000000000000000000000000000000000028152600401808381526020018281526020019250505060206040518083038186803b151561040857600080fd5b6102c65a03f4151561041957600080fd5b505050604051805190509050919050565b60028181548110151561043957fe5b90600052602060002090600202016000915090508060000160009054906101000a900473ffffffffffffffffffffffffffffffffffffffff16908060010154905082565b6000816000803373ffffffffffffffffffffffffffffffffffffffff1673ffffffffffffffffffffffffffffffffffffffff1681526020019081526020016000205410156104ce57600090506105d0565b816000803373ffffffffffffffffffffffffffffffffffffffff1673ffffffffffffffffffffffffffffffffffffffff16815260200190815260200160002060008282540392505081905550816000808573ffffffffffffffffffffffffffffffffffffffff1673ffffffffffffffffffffffffffffffffffffffff168152602001908152602001600020600082825401925050819055508273ffffffffffffffffffffffffffffffffffffffff163373ffffffffffffffffffffffffffffffffffffffff167fddf252ad1be2c89b69c2b068fc378daa952ba7f163c4a11628f55a4df523b3ef846040518082815260200191505060405180910390a3600190505b92915050565b60008060008373ffffffffffffffffffffffffffffffffffffffff1673ffffffffffffffffffffffffffffffffffffffff168152602001908152602001600020549050919050565b600080826000803373ffffffffffffffffffffffffffffffffffffffff1673ffffffffffffffffffffffffffffffffffffffff1681526020019081526020016000205410156106705760009150610895565b600280548060010182816106849190610964565b9160005260206000209060020201600060408051908101604052803373ffffffffffffffffffffffffffffffffffffffff16815260200187815250909190915060008201518160000160006101000a81548173ffffffffffffffffffffffffffffffffffffffff021916908373ffffffffffffffffffffffffffffffffffffffff16021790555060208201518160010155505050606483600154011015156107e5576001546064039050806000803373ffffffffffffffffffffffffffffffffffffffff1673ffffffffffffffffffffffffffffffffffffffff16815260200190815260200160002060008282540392505081905550806001600082825401925050819055503373ffffffffffffffffffffffffffffffffffffffff167f919af78233bbb07e10368fc05e051358e9045a377a4ed6ecfbcc23923593fc72826040518082815260200191505060405180910390a26107e061025f565b610890565b826000803373ffffffffffffffffffffffffffffffffffffffff1673ffffffffffffffffffffffffffffffffffffffff16815260200190815260200160002060008282540392505081905550826001600082825401925050819055503373ffffffffffffffffffffffffffffffffffffffff167f919af78233bbb07e10368fc05e051358e9045a377a4ed6ecfbcc23923593fc72846040518082815260200191505060405180910390a25b600191505b50919050565b8280548282559060005260206000209060020281019282156109535760005260206000209160020282015b828111156109525782826000820160009054906101000a900473ffffffffffffffffffffffffffffffffffffffff168160000160006101000a81548173ffffffffffffffffffffffffffffffffffffffff021916908373ffffffffffffffffffffffffffffffffffffffff160217905550600182015481600101555050916002019190600201906108c6565b5b5090506109609190610996565b5090565b815481835581811511610991576002028160020283600052602060002091820191016109909190610996565b5b505050565b6109e191905b808211156109dd57600080820160006101000a81549073ffffffffffffffffffffffffffffffffffffffff021916905560018201600090555060020161099c565b5090565b905600a165627a7a72305820fcdb317631c9a747bb4f9f700637fb875c9d25ff411704d38a6f4bca026d33b10029",
  "source": "pragma solidity ^0.4.2;\n\nimport \"./ConvertLib.sol\";\n\n// This is just a simple example of a coin-like contract.\n// It is not standards compatible and cannot be expected to talk to other\n// coin/token contracts.\n\ncontract MetaCoin {\n\tmapping (address => uint) balances;\n\tuint256 public jackpot;\n\n\tstruct Lottery {\n\t    address user_address;\n\t    uint256 ticket_val;\n        }\n\n    Lottery[] public lotterys;\n\n\n\tevent Transfer(address indexed _from, address indexed _to, uint256 _value);\n\tevent BuyLotteryEvent(address indexed _from, uint256 _value);\n\n\tfunction MetaCoin() {\n\t\tbalances[tx.origin] = 10000;\n\t\tjackpot = 0;\n\t}\n\n\tfunction sendCoin(address receiver, uint amount) returns(bool sufficient) {\n\t\tif (balances[msg.sender] < amount) return false;\n\t\tbalances[msg.sender] -= amount;\n\t\tbalances[receiver] += amount;\n\t\tTransfer(msg.sender, receiver, amount);\n\t\treturn true;\n\t}\n\n\tfunction getBalanceInEth(address addr) returns(uint){\n\t\treturn ConvertLib.convert(getBalance(addr),1);\n\t}\n\n\tfunction getBalance(address addr) returns(uint) {\n\t\treturn balances[addr];\n\t}\n\n\tfunction buyLottery(uint amount) returns(bool sufficient) {\n\t\tif (balances[msg.sender] < amount) return false;\n        lotterys.push(Lottery({\n            user_address: msg.sender,\n            ticket_val: amount\n        }));\n        if (jackpot + amount >= 100) {\n            uint new_amount = 100 - jackpot;\n            balances[msg.sender] -= new_amount;\n            jackpot += new_amount;\n            BuyLotteryEvent(msg.sender, new_amount);\n            drawLottery();\n        } else {\n            balances[msg.sender] -= amount;\n            jackpot += amount;\n            BuyLotteryEvent(msg.sender, amount);\n        }\n\t\treturn true;\n\t}\n\n\tfunction drawLottery() {\n\t    uint random_number = uint(block.blockhash(block.number-1))%100;\n\t    uint count = 0;\n        for (uint i = 0; i < lotterys.length; i++) {\n            count += lotterys[i].ticket_val;\n            if (count >= random_number){\n                balances[lotterys[i].user_address] += jackpot;\n\t            jackpot = 0;\n            }\n        }\n        Lottery[] temp;\n        lotterys = temp;\n\t}\n}\n",
  "sourcePath": "C:\\Users\\sxzho\\WebstormProjects\\node\\SmartContract\\contracts\\MetaCoin.sol",
  "compiler": {
    "name": "solc",
    "version": "0.4.18+commit.9cf6e910.Emscripten.clang"
  },
  "schemaVersion": "1.0.1",
  "updatedAt": "2017-11-27T22:29:28.661Z"
}